{
  "contractName": "Bilietai",
  "abi": [
    {
      "inputs": [],
      "stateMutability": "nonpayable",
      "type": "constructor"
    },
    {
      "anonymous": false,
      "inputs": [
        {
          "indexed": false,
          "internalType": "uint256",
          "name": "id",
          "type": "uint256"
        },
        {
          "indexed": true,
          "internalType": "address",
          "name": "nuo",
          "type": "address"
        },
        {
          "indexed": true,
          "internalType": "address",
          "name": "iki",
          "type": "address"
        }
      ],
      "name": "BilietasPerleistas",
      "type": "event"
    },
    {
      "anonymous": false,
      "inputs": [
        {
          "indexed": false,
          "internalType": "uint256",
          "name": "id",
          "type": "uint256"
        },
        {
          "indexed": true,
          "internalType": "address",
          "name": "pirkejas",
          "type": "address"
        }
      ],
      "name": "BilietasPirktas",
      "type": "event"
    },
    {
      "anonymous": false,
      "inputs": [
        {
          "indexed": false,
          "internalType": "uint256",
          "name": "suma",
          "type": "uint256"
        },
        {
          "indexed": true,
          "internalType": "address",
          "name": "savininkas",
          "type": "address"
        }
      ],
      "name": "PajamosIssiimtos",
      "type": "event"
    },
    {
      "inputs": [
        {
          "internalType": "uint256",
          "name": "",
          "type": "uint256"
        }
      ],
      "name": "bilietai",
      "outputs": [
        {
          "internalType": "uint256",
          "name": "id",
          "type": "uint256"
        },
        {
          "internalType": "uint256",
          "name": "kaina",
          "type": "uint256"
        },
        {
          "internalType": "address",
          "name": "owner",
          "type": "address"
        },
        {
          "internalType": "bool",
          "name": "galiojantis",
          "type": "bool"
        }
      ],
      "stateMutability": "view",
      "type": "function",
      "constant": true
    },
    {
      "inputs": [],
      "name": "owner",
      "outputs": [
        {
          "internalType": "address",
          "name": "",
          "type": "address"
        }
      ],
      "stateMutability": "view",
      "type": "function",
      "constant": true
    },
    {
      "inputs": [],
      "name": "totalRevenue",
      "outputs": [
        {
          "internalType": "uint256",
          "name": "",
          "type": "uint256"
        }
      ],
      "stateMutability": "view",
      "type": "function",
      "constant": true
    },
    {
      "inputs": [
        {
          "internalType": "uint256",
          "name": "_id",
          "type": "uint256"
        }
      ],
      "name": "pirktiBilieta",
      "outputs": [],
      "stateMutability": "payable",
      "type": "function",
      "payable": true
    },
    {
      "inputs": [
        {
          "internalType": "uint256",
          "name": "_id",
          "type": "uint256"
        },
        {
          "internalType": "address",
          "name": "_naujasOwner",
          "type": "address"
        }
      ],
      "name": "perleistiBilieta",
      "outputs": [],
      "stateMutability": "nonpayable",
      "type": "function"
    },
    {
      "inputs": [
        {
          "internalType": "uint256",
          "name": "_id",
          "type": "uint256"
        }
      ],
      "name": "grazintiBilieta",
      "outputs": [],
      "stateMutability": "nonpayable",
      "type": "function"
    },
    {
      "inputs": [],
      "name": "uzdarytiRezervacijas",
      "outputs": [],
      "stateMutability": "nonpayable",
      "type": "function"
    },
    {
      "inputs": [],
      "name": "issiimtiPajamas",
      "outputs": [],
      "stateMutability": "nonpayable",
      "type": "function"
    }
  ],
  "bytecode": "0x60806040523480156200001157600080fd5b50336000806101000a81548173ffffffffffffffffffffffffffffffffffffffff021916908373ffffffffffffffffffffffffffffffffffffffff16021790555060005b601e811015620001585780600282601e81106200007757620000766200015f565b5b600302016000018190555067016345785d8a0000600282601e8110620000a257620000a16200015f565b5b60030201600101819055506000600282601e8110620000c657620000c56200015f565b5b6003020160020160006101000a81548173ffffffffffffffffffffffffffffffffffffffff021916908373ffffffffffffffffffffffffffffffffffffffff1602179055506001600282601e81106200012457620001236200015f565b5b6003020160020160146101000a81548160ff02191690831515021790555080806200014f90620001c7565b91505062000055565b5062000215565b7f4e487b7100000000000000000000000000000000000000000000000000000000600052603260045260246000fd5b7f4e487b7100000000000000000000000000000000000000000000000000000000600052601160045260246000fd5b6000819050919050565b6000620001d482620001bd565b91507fffffffffffffffffffffffffffffffffffffffffffffffffffffffffffffffff8214156200020a57620002096200018e565b5b600182019050919050565b61135f80620002256000396000f3fe60806040526004361061007b5760003560e01c80639d053dd21161004e5780639d053dd21461012b578063bf2d9e0b14610154578063ea99a4711461017f578063fce2b1de146101965761007b565b806309f80430146100805780631968d095146100c057806371085162146100d75780638da5cb5b14610100575b600080fd5b34801561008c57600080fd5b506100a760048036038101906100a29190610c2a565b6101b2565b6040516100b79493929190610cc2565b60405180910390f35b3480156100cc57600080fd5b506100d5610215565b005b3480156100e357600080fd5b506100fe60048036038101906100f99190610c2a565b6103cf565b005b34801561010c57600080fd5b5061011561064b565b6040516101229190610d07565b60405180910390f35b34801561013757600080fd5b50610152600480360381019061014d9190610d4e565b61066f565b005b34801561016057600080fd5b506101696108f6565b6040516101769190610d8e565b60405180910390f35b34801561018b57600080fd5b506101946108fc565b005b6101b060048036038101906101ab9190610c2a565b6109e0565b005b600281601e81106101c257600080fd5b600302016000915090508060000154908060010154908060020160009054906101000a900473ffffffffffffffffffffffffffffffffffffffff16908060020160149054906101000a900460ff16905084565b60008054906101000a900473ffffffffffffffffffffffffffffffffffffffff1673ffffffffffffffffffffffffffffffffffffffff163373ffffffffffffffffffffffffffffffffffffffff16146102a3576040517f08c379a000000000000000000000000000000000000000000000000000000000815260040161029a90610e2c565b60405180910390fd5b6000600154116102e8576040517f08c379a00000000000000000000000000000000000000000000000000000000081526004016102df90610e98565b60405180910390fd5b60006001549050600060018190555060008054906101000a900473ffffffffffffffffffffffffffffffffffffffff1673ffffffffffffffffffffffffffffffffffffffff166108fc829081150290604051600060405180830381858888f1935050505015801561035d573d6000803e3d6000fd5b5060008054906101000a900473ffffffffffffffffffffffffffffffffffffffff1673ffffffffffffffffffffffffffffffffffffffff167fd6184a66c5641a13100b8d006a26aeaa29bab2ba73ad80f430b74f67b3ee9cb4826040516103c49190610d8e565b60405180910390a250565b601e8110610412576040517f08c379a000000000000000000000000000000000000000000000000000000000815260040161040990610f04565b60405180910390fd5b3373ffffffffffffffffffffffffffffffffffffffff16600282601e811061043d5761043c610f24565b5b6003020160020160009054906101000a900473ffffffffffffffffffffffffffffffffffffffff1673ffffffffffffffffffffffffffffffffffffffff16146104bb576040517f08c379a00000000000000000000000000000000000000000000000000000000081526004016104b290610f9f565b60405180910390fd5b600281601e81106104cf576104ce610f24565b5b6003020160020160149054906101000a900460ff16610523576040517f08c379a000000000000000000000000000000000000000000000000000000000815260040161051a9061100b565b60405180910390fd5b6000600282601e811061053957610538610f24565b5b6003020160020160006101000a81548173ffffffffffffffffffffffffffffffffffffffff021916908373ffffffffffffffffffffffffffffffffffffffff1602179055506000600282601e811061059457610593610f24565b5b6003020160020160146101000a81548160ff021916908315150217905550600281601e81106105c6576105c5610f24565b5b6003020160010154600160008282546105df919061105a565b925050819055503373ffffffffffffffffffffffffffffffffffffffff166108fc600283601e811061061457610613610f24565b5b60030201600101549081150290604051600060405180830381858888f19350505050158015610647573d6000803e3d6000fd5b5050565b60008054906101000a900473ffffffffffffffffffffffffffffffffffffffff1681565b601e82106106b2576040517f08c379a00000000000000000000000000000000000000000000000000000000081526004016106a990610f04565b60405180910390fd5b3373ffffffffffffffffffffffffffffffffffffffff16600283601e81106106dd576106dc610f24565b5b6003020160020160009054906101000a900473ffffffffffffffffffffffffffffffffffffffff1673ffffffffffffffffffffffffffffffffffffffff161461075b576040517f08c379a000000000000000000000000000000000000000000000000000000000815260040161075290610f9f565b60405180910390fd5b600282601e811061076f5761076e610f24565b5b6003020160020160149054906101000a900460ff166107c3576040517f08c379a00000000000000000000000000000000000000000000000000000000081526004016107ba9061100b565b60405180910390fd5b600073ffffffffffffffffffffffffffffffffffffffff168173ffffffffffffffffffffffffffffffffffffffff161415610833576040517f08c379a000000000000000000000000000000000000000000000000000000000815260040161082a90611100565b60405180910390fd5b80600283601e811061084857610847610f24565b5b6003020160020160006101000a81548173ffffffffffffffffffffffffffffffffffffffff021916908373ffffffffffffffffffffffffffffffffffffffff1602179055508073ffffffffffffffffffffffffffffffffffffffff163373ffffffffffffffffffffffffffffffffffffffff167f8f7d023f18aeb9102653b7851e7f7413ac93638714a47d972449ffd381805789846040516108ea9190610d8e565b60405180910390a35050565b60015481565b60008054906101000a900473ffffffffffffffffffffffffffffffffffffffff1673ffffffffffffffffffffffffffffffffffffffff163373ffffffffffffffffffffffffffffffffffffffff161461098a576040517f08c379a000000000000000000000000000000000000000000000000000000000815260040161098190611192565b60405180910390fd5b60005b601e8110156109dd576000600282601e81106109ac576109ab610f24565b5b6003020160020160146101000a81548160ff02191690831515021790555080806109d5906111b2565b91505061098d565b50565b601e8110610a23576040517f08c379a0000000000000000000000000000000000000000000000000000000008152600401610a1a90610f04565b60405180910390fd5b600073ffffffffffffffffffffffffffffffffffffffff16600282601e8110610a4f57610a4e610f24565b5b6003020160020160009054906101000a900473ffffffffffffffffffffffffffffffffffffffff1673ffffffffffffffffffffffffffffffffffffffff1614610acd576040517f08c379a0000000000000000000000000000000000000000000000000000000008152600401610ac490611247565b60405180910390fd5b600281601e8110610ae157610ae0610f24565b5b6003020160010154341015610b2b576040517f08c379a0000000000000000000000000000000000000000000000000000000008152600401610b22906112b3565b60405180910390fd5b33600282601e8110610b4057610b3f610f24565b5b6003020160020160006101000a81548173ffffffffffffffffffffffffffffffffffffffff021916908373ffffffffffffffffffffffffffffffffffffffff1602179055503460016000828254610b9791906112d3565b925050819055503373ffffffffffffffffffffffffffffffffffffffff167f3785446e441cde88bd80d84ff676070ea5ec3a8f81dad9021cb66f737135acb082604051610be49190610d8e565b60405180910390a250565b600080fd5b6000819050919050565b610c0781610bf4565b8114610c1257600080fd5b50565b600081359050610c2481610bfe565b92915050565b600060208284031215610c4057610c3f610bef565b5b6000610c4e84828501610c15565b91505092915050565b610c6081610bf4565b82525050565b600073ffffffffffffffffffffffffffffffffffffffff82169050919050565b6000610c9182610c66565b9050919050565b610ca181610c86565b82525050565b60008115159050919050565b610cbc81610ca7565b82525050565b6000608082019050610cd76000830187610c57565b610ce46020830186610c57565b610cf16040830185610c98565b610cfe6060830184610cb3565b95945050505050565b6000602082019050610d1c6000830184610c98565b92915050565b610d2b81610c86565b8114610d3657600080fd5b50565b600081359050610d4881610d22565b92915050565b60008060408385031215610d6557610d64610bef565b5b6000610d7385828601610c15565b9250506020610d8485828601610d39565b9150509250929050565b6000602082019050610da36000830184610c57565b92915050565b600082825260208201905092915050565b7f54696b20736176696e696e6b61732067616c692069737369696d74692070616a60008201527f616d617300000000000000000000000000000000000000000000000000000000602082015250565b6000610e16602483610da9565b9150610e2182610dba565b604082019050919050565b60006020820190508181036000830152610e4581610e09565b9050919050565b7f4e65726120737572696e6b74752070616a616d75000000000000000000000000600082015250565b6000610e82601483610da9565b9150610e8d82610e4c565b602082019050919050565b60006020820190508181036000830152610eb181610e75565b9050919050565b7f42696c6965746173206e6565677a697374756f6a610000000000000000000000600082015250565b6000610eee601583610da9565b9150610ef982610eb8565b602082019050919050565b60006020820190508181036000830152610f1d81610ee1565b9050919050565b7f4e487b7100000000000000000000000000000000000000000000000000000000600052603260045260246000fd5b7f4a7573206e657475726974652073696f2062696c6965746f0000000000000000600082015250565b6000610f89601883610da9565b9150610f9482610f53565b602082019050919050565b60006020820190508181036000830152610fb881610f7c565b9050919050565b7f42696c6965746173206e6567616c696f6a610000000000000000000000000000600082015250565b6000610ff5601283610da9565b915061100082610fbf565b602082019050919050565b6000602082019050818103600083015261102481610fe8565b9050919050565b7f4e487b7100000000000000000000000000000000000000000000000000000000600052601160045260246000fd5b600061106582610bf4565b915061107083610bf4565b9250828210156110835761108261102b565b5b828203905092915050565b7f4e6574656973696e676173206e61756a6f20736176696e696e6b6f206164726560008201527f7361730000000000000000000000000000000000000000000000000000000000602082015250565b60006110ea602383610da9565b91506110f58261108e565b604082019050919050565b60006020820190508181036000830152611119816110dd565b9050919050565b7f54696b20736176696e696e6b61732067616c6920757a6461727974692072657a60008201527f6572766163696a61730000000000000000000000000000000000000000000000602082015250565b600061117c602983610da9565b915061118782611120565b604082019050919050565b600060208201905081810360008301526111ab8161116f565b9050919050565b60006111bd82610bf4565b91507fffffffffffffffffffffffffffffffffffffffffffffffffffffffffffffffff8214156111f0576111ef61102b565b5b600182019050919050565b7f42696c6965746173206a61752070617264756f74617300000000000000000000600082015250565b6000611231601683610da9565b915061123c826111fb565b602082019050919050565b6000602082019050818103600083015261126081611224565b9050919050565b7f4e6570616b616e6b61206c657375000000000000000000000000000000000000600082015250565b600061129d600e83610da9565b91506112a882611267565b602082019050919050565b600060208201905081810360008301526112cc81611290565b9050919050565b60006112de82610bf4565b91506112e983610bf4565b9250827fffffffffffffffffffffffffffffffffffffffffffffffffffffffffffffffff0382111561131e5761131d61102b565b5b82820190509291505056fea2646970667358221220b905c1e61dcd906a424959abeeb17cd0707c04a1f84c4544404750e7ff9f5cba64736f6c634300080b0033",
  "immutableReferences": {},
  "source": "// SPDX-License-Identifier: MIT\npragma solidity ^0.8.11;\n\nuint256 constant BILIETU_SKAICIUS = 30;\n\ncontract Bilietai {\n    address public owner; // Sutarties savininkas (kino teatro savininkas)\n    uint256 public totalRevenue; // Surinktos pajamos u bilietus\n\n    struct Bilietas {\n        uint256 id;\n        uint256 kaina;\n        address owner; // Bilieto savininkas\n        bool galiojantis; // Tikrina, ar bilietas galioja\n    }\n\n    Bilietas[BILIETU_SKAICIUS] public bilietai;\n\n    event BilietasPirktas(uint256 id, address indexed pirkejas);\n    event BilietasPerleistas(uint256 id, address indexed nuo, address indexed iki);\n    event PajamosIssiimtos(uint256 suma, address indexed savininkas);\n\n    constructor() {\n        owner = msg.sender;\n        for (uint256 i = 0; i < BILIETU_SKAICIUS; i++) {\n            bilietai[i].id = i;\n            bilietai[i].kaina = 0.1 ether; // 0.1 ETH\n            bilietai[i].owner = address(0x0);\n            bilietai[i].galiojantis = true;\n        }\n    }\n\n    function pirktiBilieta(uint256 _id) external payable {\n        require(_id < BILIETU_SKAICIUS, \"Bilietas neegzistuoja\");\n        require(bilietai[_id].owner == address(0x0), \"Bilietas jau parduotas\");\n        require(msg.value >= bilietai[_id].kaina, \"Nepakanka lesu\");\n\n        bilietai[_id].owner = msg.sender;\n        totalRevenue += msg.value;\n\n        emit BilietasPirktas(_id, msg.sender);\n    }\n\n    function perleistiBilieta(uint256 _id, address _naujasOwner) external {\n        require(_id < BILIETU_SKAICIUS, \"Bilietas neegzistuoja\");\n        require(bilietai[_id].owner == msg.sender, \"Jus neturite sio bilieto\");\n        require(bilietai[_id].galiojantis, \"Bilietas negalioja\");\n        require(_naujasOwner != address(0x0), \"Neteisingas naujo savininko adresas\");\n\n        bilietai[_id].owner = _naujasOwner;\n\n        emit BilietasPerleistas(_id, msg.sender, _naujasOwner);\n    }\n\n    function grazintiBilieta(uint256 _id) external {\n        require(_id < BILIETU_SKAICIUS, \"Bilietas neegzistuoja\");\n        require(bilietai[_id].owner == msg.sender, \"Jus neturite sio bilieto\");\n        require(bilietai[_id].galiojantis, \"Bilietas negalioja\");\n\n        bilietai[_id].owner = address(0x0);\n        bilietai[_id].galiojantis = false;\n\n        totalRevenue -= bilietai[_id].kaina;\n\n        payable(msg.sender).transfer(bilietai[_id].kaina);\n    }\n\n    function uzdarytiRezervacijas() external {\n        require(msg.sender == owner, \"Tik savininkas gali uzdaryti rezervacijas\");\n\n        for (uint256 i = 0; i < BILIETU_SKAICIUS; i++) {\n            bilietai[i].galiojantis = false;\n        }\n    }\n\n    function issiimtiPajamas() external {\n        require(msg.sender == owner, \"Tik savininkas gali issiimti pajamas\");\n        require(totalRevenue > 0, \"Nera surinktu pajamu\");\n\n        uint256 pajamos = totalRevenue;\n        totalRevenue = 0;\n\n        payable(owner).transfer(pajamos);\n\n        emit PajamosIssiimtos(pajamos, owner);\n    }\n}\n",
  "sourcePath": "/Users/kamilezobelaite/paskutinisBlokai/contracts/Bilietai.sol",
  "compiler": {
    "name": "solc",
    "version": "0.8.11+commit.d7f03943.Emscripten.clang"
  },
  "schemaVersion": "3.4.16",
  "updatedAt": "2024-12-10T23:09:29.756Z",
  "networkType": "ethereum",
  "devdoc": {
    "kind": "dev",
    "methods": {},
    "version": 1
  },
  "userdoc": {
    "kind": "user",
    "methods": {},
    "version": 1
  }
}